{
  "_format": "hh-sol-artifact-1",
  "contractName": "MergeNFT",
  "sourceName": "contracts/NFT.sol",
  "abi": [
    {
      "inputs": [
        {
          "internalType": "address",
          "name": "_merge_canvas_contract_address",
          "type": "address"
        },
        {
          "internalType": "string",
          "name": "_url",
          "type": "string"
        }
      ],
      "stateMutability": "nonpayable",
      "type": "constructor"
    },
    {
      "inputs": [
        {
          "internalType": "uint256",
          "name": "tokenId",
          "type": "uint256"
        }
      ],
      "name": "ERC721Metadata_URIQueryForNonExistentToken",
      "type": "error"
    },
    {
      "inputs": [
        {
          "internalType": "address",
          "name": "sender",
          "type": "address"
        }
      ],
      "name": "MergeCanvas_NotContributor",
      "type": "error"
    },
    {
      "inputs": [
        {
          "internalType": "address",
          "name": "sender",
          "type": "address"
        }
      ],
      "name": "MergeCanvas_NotOwner",
      "type": "error"
    },
    {
      "inputs": [
        {
          "internalType": "address",
          "name": "sender",
          "type": "address"
        }
      ],
      "name": "MergeNFT_MintedBefore",
      "type": "error"
    },
    {
      "anonymous": false,
      "inputs": [
        {
          "indexed": true,
          "internalType": "address",
          "name": "owner",
          "type": "address"
        },
        {
          "indexed": true,
          "internalType": "address",
          "name": "approved",
          "type": "address"
        },
        {
          "indexed": true,
          "internalType": "uint256",
          "name": "tokenId",
          "type": "uint256"
        }
      ],
      "name": "Approval",
      "type": "event"
    },
    {
      "anonymous": false,
      "inputs": [
        {
          "indexed": true,
          "internalType": "address",
          "name": "owner",
          "type": "address"
        },
        {
          "indexed": true,
          "internalType": "address",
          "name": "operator",
          "type": "address"
        },
        {
          "indexed": false,
          "internalType": "bool",
          "name": "approved",
          "type": "bool"
        }
      ],
      "name": "ApprovalForAll",
      "type": "event"
    },
    {
      "anonymous": false,
      "inputs": [
        {
          "indexed": false,
          "internalType": "address",
          "name": "owner",
          "type": "address"
        },
        {
          "indexed": false,
          "internalType": "address",
          "name": "mergeCanvasContractAddress",
          "type": "address"
        },
        {
          "indexed": false,
          "internalType": "string",
          "name": "canvasUrl",
          "type": "string"
        },
        {
          "indexed": false,
          "internalType": "uint16",
          "name": "opacity",
          "type": "uint16"
        },
        {
          "indexed": false,
          "internalType": "uint256",
          "name": "canvasDimension",
          "type": "uint256"
        }
      ],
      "name": "MergeNFT_Deployed",
      "type": "event"
    },
    {
      "anonymous": false,
      "inputs": [
        {
          "indexed": false,
          "internalType": "address",
          "name": "contributor",
          "type": "address"
        },
        {
          "indexed": false,
          "internalType": "uint256",
          "name": "tokenId",
          "type": "uint256"
        }
      ],
      "name": "MergeNFT_Minted",
      "type": "event"
    },
    {
      "anonymous": false,
      "inputs": [
        {
          "indexed": true,
          "internalType": "address",
          "name": "previousOwner",
          "type": "address"
        },
        {
          "indexed": true,
          "internalType": "address",
          "name": "newOwner",
          "type": "address"
        }
      ],
      "name": "OwnershipTransferred",
      "type": "event"
    },
    {
      "anonymous": false,
      "inputs": [
        {
          "indexed": true,
          "internalType": "address",
          "name": "from",
          "type": "address"
        },
        {
          "indexed": true,
          "internalType": "address",
          "name": "to",
          "type": "address"
        },
        {
          "indexed": true,
          "internalType": "uint256",
          "name": "tokenId",
          "type": "uint256"
        }
      ],
      "name": "Transfer",
      "type": "event"
    },
    {
      "inputs": [],
      "name": "CANVAS_URL",
      "outputs": [
        {
          "internalType": "string",
          "name": "",
          "type": "string"
        }
      ],
      "stateMutability": "view",
      "type": "function"
    },
    {
      "inputs": [
        {
          "internalType": "address",
          "name": "to",
          "type": "address"
        },
        {
          "internalType": "uint256",
          "name": "tokenId",
          "type": "uint256"
        }
      ],
      "name": "approve",
      "outputs": [],
      "stateMutability": "nonpayable",
      "type": "function"
    },
    {
      "inputs": [
        {
          "internalType": "address",
          "name": "owner",
          "type": "address"
        }
      ],
      "name": "balanceOf",
      "outputs": [
        {
          "internalType": "uint256",
          "name": "",
          "type": "uint256"
        }
      ],
      "stateMutability": "view",
      "type": "function"
    },
    {
      "inputs": [
        {
          "internalType": "uint256",
          "name": "tokenId",
          "type": "uint256"
        }
      ],
      "name": "getApproved",
      "outputs": [
        {
          "internalType": "address",
          "name": "",
          "type": "address"
        }
      ],
      "stateMutability": "view",
      "type": "function"
    },
    {
      "inputs": [
        {
          "internalType": "address",
          "name": "owner",
          "type": "address"
        },
        {
          "internalType": "address",
          "name": "operator",
          "type": "address"
        }
      ],
      "name": "isApprovedForAll",
      "outputs": [
        {
          "internalType": "bool",
          "name": "",
          "type": "bool"
        }
      ],
      "stateMutability": "view",
      "type": "function"
    },
    {
      "inputs": [],
      "name": "mint",
      "outputs": [],
      "stateMutability": "nonpayable",
      "type": "function"
    },
    {
      "inputs": [],
      "name": "name",
      "outputs": [
        {
          "internalType": "string",
          "name": "",
          "type": "string"
        }
      ],
      "stateMutability": "view",
      "type": "function"
    },
    {
      "inputs": [],
      "name": "owner",
      "outputs": [
        {
          "internalType": "address",
          "name": "",
          "type": "address"
        }
      ],
      "stateMutability": "view",
      "type": "function"
    },
    {
      "inputs": [
        {
          "internalType": "uint256",
          "name": "tokenId",
          "type": "uint256"
        }
      ],
      "name": "ownerOf",
      "outputs": [
        {
          "internalType": "address",
          "name": "",
          "type": "address"
        }
      ],
      "stateMutability": "view",
      "type": "function"
    },
    {
      "inputs": [],
      "name": "renounceOwnership",
      "outputs": [],
      "stateMutability": "nonpayable",
      "type": "function"
    },
    {
      "inputs": [
        {
          "internalType": "address",
          "name": "from",
          "type": "address"
        },
        {
          "internalType": "address",
          "name": "to",
          "type": "address"
        },
        {
          "internalType": "uint256",
          "name": "tokenId",
          "type": "uint256"
        }
      ],
      "name": "safeTransferFrom",
      "outputs": [],
      "stateMutability": "nonpayable",
      "type": "function"
    },
    {
      "inputs": [
        {
          "internalType": "address",
          "name": "from",
          "type": "address"
        },
        {
          "internalType": "address",
          "name": "to",
          "type": "address"
        },
        {
          "internalType": "uint256",
          "name": "tokenId",
          "type": "uint256"
        },
        {
          "internalType": "bytes",
          "name": "data",
          "type": "bytes"
        }
      ],
      "name": "safeTransferFrom",
      "outputs": [],
      "stateMutability": "nonpayable",
      "type": "function"
    },
    {
      "inputs": [
        {
          "internalType": "address",
          "name": "operator",
          "type": "address"
        },
        {
          "internalType": "bool",
          "name": "approved",
          "type": "bool"
        }
      ],
      "name": "setApprovalForAll",
      "outputs": [],
      "stateMutability": "nonpayable",
      "type": "function"
    },
    {
      "inputs": [
        {
          "internalType": "string",
          "name": "_url",
          "type": "string"
        }
      ],
      "name": "setCanvasURL",
      "outputs": [],
      "stateMutability": "nonpayable",
      "type": "function"
    },
    {
      "inputs": [
        {
          "internalType": "bytes4",
          "name": "interfaceId",
          "type": "bytes4"
        }
      ],
      "name": "supportsInterface",
      "outputs": [
        {
          "internalType": "bool",
          "name": "",
          "type": "bool"
        }
      ],
      "stateMutability": "view",
      "type": "function"
    },
    {
      "inputs": [
        {
          "internalType": "string",
          "name": "_svg",
          "type": "string"
        }
      ],
      "name": "svgToImageURI",
      "outputs": [
        {
          "internalType": "string",
          "name": "",
          "type": "string"
        }
      ],
      "stateMutability": "pure",
      "type": "function"
    },
    {
      "inputs": [],
      "name": "symbol",
      "outputs": [
        {
          "internalType": "string",
          "name": "",
          "type": "string"
        }
      ],
      "stateMutability": "view",
      "type": "function"
    },
    {
      "inputs": [],
      "name": "tokenCounter",
      "outputs": [
        {
          "internalType": "uint256",
          "name": "",
          "type": "uint256"
        }
      ],
      "stateMutability": "view",
      "type": "function"
    },
    {
      "inputs": [
        {
          "internalType": "uint256",
          "name": "",
          "type": "uint256"
        }
      ],
      "name": "tokenIdToContributor",
      "outputs": [
        {
          "internalType": "address",
          "name": "",
          "type": "address"
        }
      ],
      "stateMutability": "view",
      "type": "function"
    },
    {
      "inputs": [
        {
          "internalType": "uint256",
          "name": "_tokenId",
          "type": "uint256"
        }
      ],
      "name": "tokenURI",
      "outputs": [
        {
          "internalType": "string",
          "name": "",
          "type": "string"
        }
      ],
      "stateMutability": "view",
      "type": "function"
    },
    {
      "inputs": [
        {
          "internalType": "address",
          "name": "from",
          "type": "address"
        },
        {
          "internalType": "address",
          "name": "to",
          "type": "address"
        },
        {
          "internalType": "uint256",
          "name": "tokenId",
          "type": "uint256"
        }
      ],
      "name": "transferFrom",
      "outputs": [],
      "stateMutability": "nonpayable",
      "type": "function"
    },
    {
      "inputs": [
        {
          "internalType": "address",
          "name": "newOwner",
          "type": "address"
        }
      ],
      "name": "transferOwnership",
      "outputs": [],
      "stateMutability": "nonpayable",
      "type": "function"
    }
  ],
  "bytecode": "0x60a06040523480156200001157600080fd5b50604051620049ed380380620049ed833981810160405281019062000037919062000617565b6040518060400160405280600e81526020017f5468654d657267654d6f736169630000000000000000000000000000000000008152506040518060400160405280600381526020017f544d4d00000000000000000000000000000000000000000000000000000000008152508160009080519060200190620000bb92919062000365565b508060019080519060200190620000d492919062000365565b505050620000f7620000eb6200029760201b60201c565b6200029f60201b60201c565b60016007819055506050600a60006101000a81548161ffff021916908361ffff1602179055503373ffffffffffffffffffffffffffffffffffffffff1660808173ffffffffffffffffffffffffffffffffffffffff168152505080600890805190602001906200016992919062000365565b5081600a60026101000a81548173ffffffffffffffffffffffffffffffffffffffff021916908373ffffffffffffffffffffffffffffffffffffffff160217905550600a60029054906101000a900473ffffffffffffffffffffffffffffffffffffffff16600d60006101000a81548173ffffffffffffffffffffffffffffffffffffffff021916908373ffffffffffffffffffffffffffffffffffffffff1602179055506101f46009819055507fb52f9714c10254b274d6917f8df74ae0db17b1de397a92ffef762a9b14c69bce608051600a60029054906101000a900473ffffffffffffffffffffffffffffffffffffffff166008600a60009054906101000a900461ffff1660095460405162000287959493929190620007df565b60405180910390a1505062000843565b600033905090565b6000600660009054906101000a900473ffffffffffffffffffffffffffffffffffffffff16905081600660006101000a81548173ffffffffffffffffffffffffffffffffffffffff021916908373ffffffffffffffffffffffffffffffffffffffff1602179055508173ffffffffffffffffffffffffffffffffffffffff168173ffffffffffffffffffffffffffffffffffffffff167f8be0079c531659141344cd1fd0a4f28419497f9722a3daafe3b4186f6b6457e060405160405180910390a35050565b8280546200037390620006bd565b90600052602060002090601f016020900481019282620003975760008555620003e3565b82601f10620003b257805160ff1916838001178555620003e3565b82800160010185558215620003e3579182015b82811115620003e2578251825591602001919060010190620003c5565b5b509050620003f29190620003f6565b5090565b5b8082111562000411576000816000905550600101620003f7565b5090565b6000604051905090565b600080fd5b600080fd5b600073ffffffffffffffffffffffffffffffffffffffff82169050919050565b6000620004568262000429565b9050919050565b620004688162000449565b81146200047457600080fd5b50565b60008151905062000488816200045d565b92915050565b600080fd5b600080fd5b6000601f19601f8301169050919050565b7f4e487b7100000000000000000000000000000000000000000000000000000000600052604160045260246000fd5b620004e38262000498565b810181811067ffffffffffffffff82111715620005055762000504620004a9565b5b80604052505050565b60006200051a62000415565b9050620005288282620004d8565b919050565b600067ffffffffffffffff8211156200054b576200054a620004a9565b5b620005568262000498565b9050602081019050919050565b60005b838110156200058357808201518184015260208101905062000566565b8381111562000593576000848401525b50505050565b6000620005b0620005aa846200052d565b6200050e565b905082815260208101848484011115620005cf57620005ce62000493565b5b620005dc84828562000563565b509392505050565b600082601f830112620005fc57620005fb6200048e565b5b81516200060e84826020860162000599565b91505092915050565b600080604083850312156200063157620006306200041f565b5b6000620006418582860162000477565b925050602083015167ffffffffffffffff81111562000665576200066462000424565b5b6200067385828601620005e4565b9150509250929050565b620006888162000449565b82525050565b7f4e487b7100000000000000000000000000000000000000000000000000000000600052602260045260246000fd5b60006002820490506001821680620006d657607f821691505b60208210811415620006ed57620006ec6200068e565b5b50919050565b600082825260208201905092915050565b60008190508160005260206000209050919050565b600081546200072881620006bd565b620007348186620006f3565b9450600182166000811462000752576001811462000765576200079c565b60ff19831686526020860193506200079c565b620007708562000704565b60005b83811015620007945781548189015260018201915060208101905062000773565b808801955050505b50505092915050565b600061ffff82169050919050565b620007be81620007a5565b82525050565b6000819050919050565b620007d981620007c4565b82525050565b600060a082019050620007f660008301886200067d565b6200080560208301876200067d565b818103604083015262000819818662000719565b90506200082a6060830185620007b3565b620008396080830184620007ce565b9695505050505050565b60805161418e6200085f6000396000610a19015261418e6000f3fe608060405234801561001057600080fd5b50600436106101425760003560e01c806370a08231116100b8578063a22cb4651161007c578063a22cb46514610363578063b88d4fde1461037f578063c87b56dd1461039b578063d082e381146103cb578063e985e9c5146103e9578063f2fde38b1461041957610142565b806370a08231146102bd578063715018a6146102ed5780638da5cb5b146102f75780639053de291461031557806395d89b411461034557610142565b806323b872dd1161010a57806323b872dd146101eb57806330d871c61461020757806335cf03151461023757806342842e0e146102535780636352211e1461026f5780636d6220981461029f57610142565b806301ffc9a71461014757806306fdde0314610177578063081812fc14610195578063095ea7b3146101c55780631249c58b146101e1575b600080fd5b610161600480360381019061015c91906123ba565b610435565b60405161016e9190612402565b60405180910390f35b61017f610517565b60405161018c91906124b6565b60405180910390f35b6101af60048036038101906101aa919061250e565b6105a9565b6040516101bc919061257c565b60405180910390f35b6101df60048036038101906101da91906125c3565b6105ef565b005b6101e9610707565b005b61020560048036038101906102009190612603565b610986565b005b610221600480360381019061021c919061278b565b6109e6565b60405161022e91906124b6565b60405180910390f35b610251600480360381019061024c919061278b565b610a17565b005b61026d60048036038101906102689190612603565b610ac1565b005b6102896004803603810190610284919061250e565b610ae1565b604051610296919061257c565b60405180910390f35b6102a7610b93565b6040516102b491906124b6565b60405180910390f35b6102d760048036038101906102d291906127d4565b610c21565b6040516102e49190612810565b60405180910390f35b6102f5610cd9565b005b6102ff610ced565b60405161030c919061257c565b60405180910390f35b61032f600480360381019061032a919061250e565b610d17565b60405161033c919061257c565b60405180910390f35b61034d610d4a565b60405161035a91906124b6565b60405180910390f35b61037d60048036038101906103789190612857565b610ddc565b005b61039960048036038101906103949190612938565b610df2565b005b6103b560048036038101906103b0919061250e565b610e54565b6040516103c291906124b6565b60405180910390f35b6103d3610eef565b6040516103e09190612810565b60405180910390f35b61040360048036038101906103fe91906129bb565b610ef5565b6040516104109190612402565b60405180910390f35b610433600480360381019061042e91906127d4565b610f89565b005b60007f80ac58cd000000000000000000000000000000000000000000000000000000007bffffffffffffffffffffffffffffffffffffffffffffffffffffffff1916827bffffffffffffffffffffffffffffffffffffffffffffffffffffffff1916148061050057507f5b5e139f000000000000000000000000000000000000000000000000000000007bffffffffffffffffffffffffffffffffffffffffffffffffffffffff1916827bffffffffffffffffffffffffffffffffffffffffffffffffffffffff1916145b80610510575061050f8261100d565b5b9050919050565b60606000805461052690612a2a565b80601f016020809104026020016040519081016040528092919081815260200182805461055290612a2a565b801561059f5780601f106105745761010080835404028352916020019161059f565b820191906000526020600020905b81548152906001019060200180831161058257829003601f168201915b5050505050905090565b60006105b482611077565b6004600083815260200190815260200160002060009054906101000a900473ffffffffffffffffffffffffffffffffffffffff169050919050565b60006105fa82610ae1565b90508073ffffffffffffffffffffffffffffffffffffffff168373ffffffffffffffffffffffffffffffffffffffff16141561066b576040517f08c379a000000000000000000000000000000000000000000000000000000000815260040161066290612ace565b60405180910390fd5b8073ffffffffffffffffffffffffffffffffffffffff1661068a6110c2565b73ffffffffffffffffffffffffffffffffffffffff1614806106b957506106b8816106b36110c2565b610ef5565b5b6106f8576040517f08c379a00000000000000000000000000000000000000000000000000000000081526004016106ef90612b60565b60405180910390fd5b61070283836110ca565b505050565b600d60009054906101000a900473ffffffffffffffffffffffffffffffffffffffff1673ffffffffffffffffffffffffffffffffffffffff1663205b1946336040518263ffffffff1660e01b8152600401610762919061257c565b602060405180830381865afa15801561077f573d6000803e3d6000fd5b505050506040513d601f19601f820116820180604052508101906107a39190612b95565b6107e457336040517f7096adea0000000000000000000000000000000000000000000000000000000081526004016107db919061257c565b60405180910390fd5b60011515600c60003373ffffffffffffffffffffffffffffffffffffffff1673ffffffffffffffffffffffffffffffffffffffff16815260200190815260200160002060009054906101000a900460ff161515141561087a57336040517f6a431ebe000000000000000000000000000000000000000000000000000000008152600401610871919061257c565b60405180910390fd5b6000600754905060016007546108909190612bf1565b6007819055506001600c60003373ffffffffffffffffffffffffffffffffffffffff1673ffffffffffffffffffffffffffffffffffffffff16815260200190815260200160002060006101000a81548160ff0219169083151502179055506108f83382611183565b33600b600083815260200190815260200160002060006101000a81548173ffffffffffffffffffffffffffffffffffffffff021916908373ffffffffffffffffffffffffffffffffffffffff1602179055507fd1e6aaab83078aa6a8153b6076657343ff67be02d5f1f14906f1a7d8016e95f2338260405161097b929190612c47565b60405180910390a150565b6109976109916110c2565b826111a1565b6109d6576040517f08c379a00000000000000000000000000000000000000000000000000000000081526004016109cd90612ce2565b60405180910390fd5b6109e1838383611236565b505050565b60606109f18261149d565b604051602001610a019190612d8a565b6040516020818303038152906040529050919050565b7f000000000000000000000000000000000000000000000000000000000000000073ffffffffffffffffffffffffffffffffffffffff163373ffffffffffffffffffffffffffffffffffffffff1614610aa757336040517f70e297ee000000000000000000000000000000000000000000000000000000008152600401610a9e919061257c565b60405180910390fd5b8060089080519060200190610abd9291906122ab565b5050565b610adc83838360405180602001604052806000815250610df2565b505050565b6000806002600084815260200190815260200160002060009054906101000a900473ffffffffffffffffffffffffffffffffffffffff169050600073ffffffffffffffffffffffffffffffffffffffff168173ffffffffffffffffffffffffffffffffffffffff161415610b8a576040517f08c379a0000000000000000000000000000000000000000000000000000000008152600401610b8190612df8565b60405180910390fd5b80915050919050565b60088054610ba090612a2a565b80601f0160208091040260200160405190810160405280929190818152602001828054610bcc90612a2a565b8015610c195780601f10610bee57610100808354040283529160200191610c19565b820191906000526020600020905b815481529060010190602001808311610bfc57829003601f168201915b505050505081565b60008073ffffffffffffffffffffffffffffffffffffffff168273ffffffffffffffffffffffffffffffffffffffff161415610c92576040517f08c379a0000000000000000000000000000000000000000000000000000000008152600401610c8990612e8a565b60405180910390fd5b600360008373ffffffffffffffffffffffffffffffffffffffff1673ffffffffffffffffffffffffffffffffffffffff168152602001908152602001600020549050919050565b610ce1611622565b610ceb60006116a0565b565b6000600660009054906101000a900473ffffffffffffffffffffffffffffffffffffffff16905090565b600b6020528060005260406000206000915054906101000a900473ffffffffffffffffffffffffffffffffffffffff1681565b606060018054610d5990612a2a565b80601f0160208091040260200160405190810160405280929190818152602001828054610d8590612a2a565b8015610dd25780601f10610da757610100808354040283529160200191610dd2565b820191906000526020600020905b815481529060010190602001808311610db557829003601f168201915b5050505050905090565b610dee610de76110c2565b8383611766565b5050565b610e03610dfd6110c2565b836111a1565b610e42576040517f08c379a0000000000000000000000000000000000000000000000000000000008152600401610e3990612ce2565b60405180910390fd5b610e4e848484846118d3565b50505050565b60606007548210610e9c57816040517f71e673de000000000000000000000000000000000000000000000000000000008152600401610e939190612810565b60405180910390fd5b610ee8610ee3610ede600b600086815260200190815260200160002060009054906101000a900473ffffffffffffffffffffffffffffffffffffffff1661192f565b6109e6565b611981565b9050919050565b60075481565b6000600560008473ffffffffffffffffffffffffffffffffffffffff1673ffffffffffffffffffffffffffffffffffffffff16815260200190815260200160002060008373ffffffffffffffffffffffffffffffffffffffff1673ffffffffffffffffffffffffffffffffffffffff16815260200190815260200160002060009054906101000a900460ff16905092915050565b610f91611622565b600073ffffffffffffffffffffffffffffffffffffffff168173ffffffffffffffffffffffffffffffffffffffff161415611001576040517f08c379a0000000000000000000000000000000000000000000000000000000008152600401610ff890612f1c565b60405180910390fd5b61100a816116a0565b50565b60007f01ffc9a7000000000000000000000000000000000000000000000000000000007bffffffffffffffffffffffffffffffffffffffffffffffffffffffff1916827bffffffffffffffffffffffffffffffffffffffffffffffffffffffff1916149050919050565b611080816119d4565b6110bf576040517f08c379a00000000000000000000000000000000000000000000000000000000081526004016110b690612df8565b60405180910390fd5b50565b600033905090565b816004600083815260200190815260200160002060006101000a81548173ffffffffffffffffffffffffffffffffffffffff021916908373ffffffffffffffffffffffffffffffffffffffff160217905550808273ffffffffffffffffffffffffffffffffffffffff1661113d83610ae1565b73ffffffffffffffffffffffffffffffffffffffff167f8c5be1e5ebec7d5bd14f71427d1e84f3dd0314c0f7b2291e5b200ac8c7c3b92560405160405180910390a45050565b61119d828260405180602001604052806000815250611a40565b5050565b6000806111ad83610ae1565b90508073ffffffffffffffffffffffffffffffffffffffff168473ffffffffffffffffffffffffffffffffffffffff1614806111ef57506111ee8185610ef5565b5b8061122d57508373ffffffffffffffffffffffffffffffffffffffff16611215846105a9565b73ffffffffffffffffffffffffffffffffffffffff16145b91505092915050565b8273ffffffffffffffffffffffffffffffffffffffff1661125682610ae1565b73ffffffffffffffffffffffffffffffffffffffff16146112ac576040517f08c379a00000000000000000000000000000000000000000000000000000000081526004016112a390612fae565b60405180910390fd5b600073ffffffffffffffffffffffffffffffffffffffff168273ffffffffffffffffffffffffffffffffffffffff16141561131c576040517f08c379a000000000000000000000000000000000000000000000000000000000815260040161131390613040565b60405180910390fd5b611327838383611a9b565b6113326000826110ca565b6001600360008573ffffffffffffffffffffffffffffffffffffffff1673ffffffffffffffffffffffffffffffffffffffff16815260200190815260200160002060008282546113829190613060565b925050819055506001600360008473ffffffffffffffffffffffffffffffffffffffff1673ffffffffffffffffffffffffffffffffffffffff16815260200190815260200160002060008282546113d99190612bf1565b92505081905550816002600083815260200190815260200160002060006101000a81548173ffffffffffffffffffffffffffffffffffffffff021916908373ffffffffffffffffffffffffffffffffffffffff160217905550808273ffffffffffffffffffffffffffffffffffffffff168473ffffffffffffffffffffffffffffffffffffffff167fddf252ad1be2c89b69c2b068fc378daa952ba7f163c4a11628f55a4df523b3ef60405160405180910390a4611498838383611aa0565b505050565b60606000825114156114c05760405180602001604052806000815250905061161d565b600060405180606001604052806040815260200161411960409139905060006003600285516114ef9190612bf1565b6114f991906130c3565b600461150591906130f4565b905060006020826115169190612bf1565b67ffffffffffffffff81111561152f5761152e612660565b5b6040519080825280601f01601f1916602001820160405280156115615781602001600182028036833780820191505090505b509050818152600183018586518101602084015b818310156115dc576003830192508251603f8160121c1685015160f81b8252600182019150603f81600c1c1685015160f81b8252600182019150603f8160061c1685015160f81b8252600182019150603f811685015160f81b825260018201915050611575565b6003895106600181146115f6576002811461160657611611565b613d3d60f01b6002830352611611565b603d60f81b60018303525b50505050508093505050505b919050565b61162a6110c2565b73ffffffffffffffffffffffffffffffffffffffff16611648610ced565b73ffffffffffffffffffffffffffffffffffffffff161461169e576040517f08c379a00000000000000000000000000000000000000000000000000000000081526004016116959061319a565b60405180910390fd5b565b6000600660009054906101000a900473ffffffffffffffffffffffffffffffffffffffff16905081600660006101000a81548173ffffffffffffffffffffffffffffffffffffffff021916908373ffffffffffffffffffffffffffffffffffffffff1602179055508173ffffffffffffffffffffffffffffffffffffffff168173ffffffffffffffffffffffffffffffffffffffff167f8be0079c531659141344cd1fd0a4f28419497f9722a3daafe3b4186f6b6457e060405160405180910390a35050565b8173ffffffffffffffffffffffffffffffffffffffff168373ffffffffffffffffffffffffffffffffffffffff1614156117d5576040517f08c379a00000000000000000000000000000000000000000000000000000000081526004016117cc90613206565b60405180910390fd5b80600560008573ffffffffffffffffffffffffffffffffffffffff1673ffffffffffffffffffffffffffffffffffffffff16815260200190815260200160002060008473ffffffffffffffffffffffffffffffffffffffff1673ffffffffffffffffffffffffffffffffffffffff16815260200190815260200160002060006101000a81548160ff0219169083151502179055508173ffffffffffffffffffffffffffffffffffffffff168373ffffffffffffffffffffffffffffffffffffffff167f17307eab39ab6107e8899845ad3d59bd9653f200f220920489ca2b5937696c31836040516118c69190612402565b60405180910390a3505050565b6118de848484611236565b6118ea84848484611aa5565b611929576040517f08c379a000000000000000000000000000000000000000000000000000000000815260040161192090613298565b60405180910390fd5b50505050565b606061193c600954611c2d565b611947600954611c2d565b61194f611d8e565b61195885611e04565b60405160200161196b949392919061339c565b6040516020818303038152906040529050919050565b60606119ae60088360405160200161199a9291906135fc565b60405160208183030381529060405261149d565b6040516020016119be91906136c2565b6040516020818303038152906040529050919050565b60008073ffffffffffffffffffffffffffffffffffffffff166002600084815260200190815260200160002060009054906101000a900473ffffffffffffffffffffffffffffffffffffffff1673ffffffffffffffffffffffffffffffffffffffff1614159050919050565b611a4a838361200e565b611a576000848484611aa5565b611a96576040517f08c379a0000000000000000000000000000000000000000000000000000000008152600401611a8d90613298565b60405180910390fd5b505050565b505050565b505050565b6000611ac68473ffffffffffffffffffffffffffffffffffffffff166121e8565b15611c20578373ffffffffffffffffffffffffffffffffffffffff1663150b7a02611aef6110c2565b8786866040518563ffffffff1660e01b8152600401611b119493929190613739565b6020604051808303816000875af1925050508015611b4d57506040513d601f19601f82011682018060405250810190611b4a919061379a565b60015b611bd0573d8060008114611b7d576040519150601f19603f3d011682016040523d82523d6000602084013e611b82565b606091505b50600081511415611bc8576040517f08c379a0000000000000000000000000000000000000000000000000000000008152600401611bbf90613298565b60405180910390fd5b805181602001fd5b63150b7a0260e01b7bffffffffffffffffffffffffffffffffffffffffffffffffffffffff1916817bffffffffffffffffffffffffffffffffffffffffffffffffffffffff191614915050611c25565b600190505b949350505050565b60606000821415611c75576040518060400160405280600181526020017f30000000000000000000000000000000000000000000000000000000000000008152509050611d89565b600082905060005b60008214611ca7578080611c90906137c7565b915050600a82611ca091906130c3565b9150611c7d565b60008167ffffffffffffffff811115611cc357611cc2612660565b5b6040519080825280601f01601f191660200182016040528015611cf55781602001600182028036833780820191505090505b5090505b60008514611d8257600182611d0e9190613060565b9150600a85611d1d9190613810565b6030611d299190612bf1565b60f81b818381518110611d3f57611d3e613841565b5b60200101907effffffffffffffffffffffffffffffffffffffffffffffffffffffffffffff1916908160001a905350600a85611d7b91906130c3565b9450611cf9565b8093505050505b919050565b60606008611d9d600954611c2d565b611da8600954611c2d565b611db3600954611c2d565b611dbe600954611c2d565b611ddb600a60009054906101000a900461ffff1661ffff16611c2d565b604051602001611df0969594939291906139a0565b604051602081830303815290604052905090565b60606000600d60009054906101000a900473ffffffffffffffffffffffffffffffffffffffff1673ffffffffffffffffffffffffffffffffffffffff166334f53a46846040518263ffffffff1660e01b8152600401611e63919061257c565b600060405180830381865afa158015611e80573d6000803e3d6000fd5b505050506040513d6000823e3d601f19601f82011682018060405250810190611ea99190613b6b565b905060005b81518161ffff161015612007576000828261ffff1681518110611ed457611ed3613841565b5b602002602001015190506000601082901c905060006201000083611ef89190613810565b90506000600d60009054906101000a900473ffffffffffffffffffffffffffffffffffffffff1673ffffffffffffffffffffffffffffffffffffffff1663d0f5f4cd84846040518363ffffffff1660e01b8152600401611f59929190613bd1565b606060405180830381865afa158015611f76573d6000803e3d6000fd5b505050506040513d601f19601f82011682018060405250810190611f9a9190613c9c565b9050600060405180606001604052808561ffff1681526020018461ffff16815260200183815250905087611fcd8261220b565b604051602001611fde929190613cc9565b604051602081830303815290604052975050505050508080611fff90613ced565b915050611eae565b5050919050565b600073ffffffffffffffffffffffffffffffffffffffff168273ffffffffffffffffffffffffffffffffffffffff16141561207e576040517f08c379a000000000000000000000000000000000000000000000000000000000815260040161207590613d64565b60405180910390fd5b612087816119d4565b156120c7576040517f08c379a00000000000000000000000000000000000000000000000000000000081526004016120be90613dd0565b60405180910390fd5b6120d360008383611a9b565b6001600360008473ffffffffffffffffffffffffffffffffffffffff1673ffffffffffffffffffffffffffffffffffffffff16815260200190815260200160002060008282546121239190612bf1565b92505081905550816002600083815260200190815260200160002060006101000a81548173ffffffffffffffffffffffffffffffffffffffff021916908373ffffffffffffffffffffffffffffffffffffffff160217905550808273ffffffffffffffffffffffffffffffffffffffff16600073ffffffffffffffffffffffffffffffffffffffff167fddf252ad1be2c89b69c2b068fc378daa952ba7f163c4a11628f55a4df523b3ef60405160405180910390a46121e460008383611aa0565b5050565b6000808273ffffffffffffffffffffffffffffffffffffffff163b119050919050565b606061221e826000015161ffff16611c2d565b61222f836020015161ffff16611c2d565b6122396001611c2d565b6122436001611c2d565b61225786604001516000015160ff16611c2d565b61226b87604001516020015160ff16611c2d565b61227f88604001516040015160ff16611c2d565b6040516020016122959796959493929190614050565b6040516020818303038152906040529050919050565b8280546122b790612a2a565b90600052602060002090601f0160209004810192826122d95760008555612320565b82601f106122f257805160ff1916838001178555612320565b82800160010185558215612320579182015b8281111561231f578251825591602001919060010190612304565b5b50905061232d9190612331565b5090565b5b8082111561234a576000816000905550600101612332565b5090565b6000604051905090565b600080fd5b600080fd5b60007fffffffff0000000000000000000000000000000000000000000000000000000082169050919050565b61239781612362565b81146123a257600080fd5b50565b6000813590506123b48161238e565b92915050565b6000602082840312156123d0576123cf612358565b5b60006123de848285016123a5565b91505092915050565b60008115159050919050565b6123fc816123e7565b82525050565b600060208201905061241760008301846123f3565b92915050565b600081519050919050565b600082825260208201905092915050565b60005b8381101561245757808201518184015260208101905061243c565b83811115612466576000848401525b50505050565b6000601f19601f8301169050919050565b60006124888261241d565b6124928185612428565b93506124a2818560208601612439565b6124ab8161246c565b840191505092915050565b600060208201905081810360008301526124d0818461247d565b905092915050565b6000819050919050565b6124eb816124d8565b81146124f657600080fd5b50565b600081359050612508816124e2565b92915050565b60006020828403121561252457612523612358565b5b6000612532848285016124f9565b91505092915050565b600073ffffffffffffffffffffffffffffffffffffffff82169050919050565b60006125668261253b565b9050919050565b6125768161255b565b82525050565b6000602082019050612591600083018461256d565b92915050565b6125a08161255b565b81146125ab57600080fd5b50565b6000813590506125bd81612597565b92915050565b600080604083850312156125da576125d9612358565b5b60006125e8858286016125ae565b92505060206125f9858286016124f9565b9150509250929050565b60008060006060848603121561261c5761261b612358565b5b600061262a868287016125ae565b935050602061263b868287016125ae565b925050604061264c868287016124f9565b9150509250925092565b600080fd5b600080fd5b7f4e487b7100000000000000000000000000000000000000000000000000000000600052604160045260246000fd5b6126988261246c565b810181811067ffffffffffffffff821117156126b7576126b6612660565b5b80604052505050565b60006126ca61234e565b90506126d6828261268f565b919050565b600067ffffffffffffffff8211156126f6576126f5612660565b5b6126ff8261246c565b9050602081019050919050565b82818337600083830152505050565b600061272e612729846126db565b6126c0565b90508281526020810184848401111561274a5761274961265b565b5b61275584828561270c565b509392505050565b600082601f83011261277257612771612656565b5b813561278284826020860161271b565b91505092915050565b6000602082840312156127a1576127a0612358565b5b600082013567ffffffffffffffff8111156127bf576127be61235d565b5b6127cb8482850161275d565b91505092915050565b6000602082840312156127ea576127e9612358565b5b60006127f8848285016125ae565b91505092915050565b61280a816124d8565b82525050565b60006020820190506128256000830184612801565b92915050565b612834816123e7565b811461283f57600080fd5b50565b6000813590506128518161282b565b92915050565b6000806040838503121561286e5761286d612358565b5b600061287c858286016125ae565b925050602061288d85828601612842565b9150509250929050565b600067ffffffffffffffff8211156128b2576128b1612660565b5b6128bb8261246c565b9050602081019050919050565b60006128db6128d684612897565b6126c0565b9050828152602081018484840111156128f7576128f661265b565b5b61290284828561270c565b509392505050565b600082601f83011261291f5761291e612656565b5b813561292f8482602086016128c8565b91505092915050565b6000806000806080858703121561295257612951612358565b5b6000612960878288016125ae565b9450506020612971878288016125ae565b9350506040612982878288016124f9565b925050606085013567ffffffffffffffff8111156129a3576129a261235d565b5b6129af8782880161290a565b91505092959194509250565b600080604083850312156129d2576129d1612358565b5b60006129e0858286016125ae565b92505060206129f1858286016125ae565b9150509250929050565b7f4e487b7100000000000000000000000000000000000000000000000000000000600052602260045260246000fd5b60006002820490506001821680612a4257607f821691505b60208210811415612a5657612a556129fb565b5b50919050565b7f4552433732313a20617070726f76616c20746f2063757272656e74206f776e6560008201527f7200000000000000000000000000000000000000000000000000000000000000602082015250565b6000612ab8602183612428565b9150612ac382612a5c565b604082019050919050565b60006020820190508181036000830152612ae781612aab565b9050919050565b7f4552433732313a20617070726f76652063616c6c6572206973206e6f7420746f60008201527f6b656e206f776e6572206e6f7220617070726f76656420666f7220616c6c0000602082015250565b6000612b4a603e83612428565b9150612b5582612aee565b604082019050919050565b60006020820190508181036000830152612b7981612b3d565b9050919050565b600081519050612b8f8161282b565b92915050565b600060208284031215612bab57612baa612358565b5b6000612bb984828501612b80565b91505092915050565b7f4e487b7100000000000000000000000000000000000000000000000000000000600052601160045260246000fd5b6000612bfc826124d8565b9150612c07836124d8565b9250827fffffffffffffffffffffffffffffffffffffffffffffffffffffffffffffffff03821115612c3c57612c3b612bc2565b5b828201905092915050565b6000604082019050612c5c600083018561256d565b612c696020830184612801565b9392505050565b7f4552433732313a2063616c6c6572206973206e6f7420746f6b656e206f776e6560008201527f72206e6f7220617070726f766564000000000000000000000000000000000000602082015250565b6000612ccc602e83612428565b9150612cd782612c70565b604082019050919050565b60006020820190508181036000830152612cfb81612cbf565b9050919050565b600081905092915050565b7f646174613a696d6167652f7376672b786d6c3b6261736536342c000000000000600082015250565b6000612d43601a83612d02565b9150612d4e82612d0d565b601a82019050919050565b6000612d648261241d565b612d6e8185612d02565b9350612d7e818560208601612439565b80840191505092915050565b6000612d9582612d36565b9150612da18284612d59565b915081905092915050565b7f4552433732313a20696e76616c696420746f6b656e2049440000000000000000600082015250565b6000612de2601883612428565b9150612ded82612dac565b602082019050919050565b60006020820190508181036000830152612e1181612dd5565b9050919050565b7f4552433732313a2061646472657373207a65726f206973206e6f74206120766160008201527f6c6964206f776e65720000000000000000000000000000000000000000000000602082015250565b6000612e74602983612428565b9150612e7f82612e18565b604082019050919050565b60006020820190508181036000830152612ea381612e67565b9050919050565b7f4f776e61626c653a206e6577206f776e657220697320746865207a65726f206160008201527f6464726573730000000000000000000000000000000000000000000000000000602082015250565b6000612f06602683612428565b9150612f1182612eaa565b604082019050919050565b60006020820190508181036000830152612f3581612ef9565b9050919050565b7f4552433732313a207472616e736665722066726f6d20696e636f72726563742060008201527f6f776e6572000000000000000000000000000000000000000000000000000000602082015250565b6000612f98602583612428565b9150612fa382612f3c565b604082019050919050565b60006020820190508181036000830152612fc781612f8b565b9050919050565b7f4552433732313a207472616e7366657220746f20746865207a65726f2061646460008201527f7265737300000000000000000000000000000000000000000000000000000000602082015250565b600061302a602483612428565b915061303582612fce565b604082019050919050565b600060208201905081810360008301526130598161301d565b9050919050565b600061306b826124d8565b9150613076836124d8565b92508282101561308957613088612bc2565b5b828203905092915050565b7f4e487b7100000000000000000000000000000000000000000000000000000000600052601260045260246000fd5b60006130ce826124d8565b91506130d9836124d8565b9250826130e9576130e8613094565b5b828204905092915050565b60006130ff826124d8565b915061310a836124d8565b9250817fffffffffffffffffffffffffffffffffffffffffffffffffffffffffffffffff048311821515161561314357613142612bc2565b5b828202905092915050565b7f4f776e61626c653a2063616c6c6572206973206e6f7420746865206f776e6572600082015250565b6000613184602083612428565b915061318f8261314e565b602082019050919050565b600060208201905081810360008301526131b381613177565b9050919050565b7f4552433732313a20617070726f766520746f2063616c6c657200000000000000600082015250565b60006131f0601983612428565b91506131fb826131ba565b602082019050919050565b6000602082019050818103600083015261321f816131e3565b9050919050565b7f4552433732313a207472616e7366657220746f206e6f6e20455243373231526560008201527f63656976657220696d706c656d656e7465720000000000000000000000000000602082015250565b6000613282603283612428565b915061328d82613226565b604082019050919050565b600060208201905081810360008301526132b181613275565b9050919050565b7f3c73766720786d6c6e733d22687474703a2f2f7777772e77332e6f72672f323060008201527f30302f73766722206865696768743d2200000000000000000000000000000000602082015250565b6000613314603083612d02565b915061331f826132b8565b603082019050919050565b7f222077696474683d220000000000000000000000000000000000000000000000815250565b7f223e000000000000000000000000000000000000000000000000000000000000815250565b7f3c2f7376673e0000000000000000000000000000000000000000000000000000815250565b60006133a782613307565b91506133b38287612d59565b91506133be8261332a565b6009820191506133ce8286612d59565b91506133d982613350565b6002820191506133e98285612d59565b91506133f58284612d59565b915061340082613376565b60068201915081905095945050505050565b7f7b226e616d65223a220000000000000000000000000000000000000000000000815250565b7f4d65726765204d6f736169630000000000000000000000000000000000000000815250565b7f222c20226465736372697074696f6e223a22416e204e4654206f66205069786560008201527f6c7320436f6e747269627574656420746f20746865204d6f7361696321222c2060208201527f2261747472696275746573223a22222c20000000000000000000000000000000604082015250565b60006134e0605183612d02565b91506134eb8261345e565b605182019050919050565b7f22696d616765223a202200000000000000000000000000000000000000000000815250565b60008190508160005260206000209050919050565b6000815461353e81612a2a565b6135488186612d02565b945060018216600081146135635760018114613574576135a7565b60ff198316865281860193506135a7565b61357d8561351c565b60005b8381101561359f57815481890152600182019150602081019050613580565b838801955050505b50505092915050565b7f2022616e696d6174696f6e5f75726c223a220000000000000000000000000000815250565b7f227d000000000000000000000000000000000000000000000000000000000000815250565b600061360782613412565b60098201915061361682613438565b600c82019150613625826134d3565b9150613630826134f6565b600a820191506136408285613531565b915061364b826135b0565b60128201915061365b8284612d59565b9150613666826135d6565b6002820191508190509392505050565b7f646174613a6170706c69636174696f6e2f6a736f6e3b6261736536342c000000600082015250565b60006136ac601d83612d02565b91506136b782613676565b601d82019050919050565b60006136cd8261369f565b91506136d98284612d59565b915081905092915050565b600081519050919050565b600082825260208201905092915050565b600061370b826136e4565b61371581856136ef565b9350613725818560208601612439565b61372e8161246c565b840191505092915050565b600060808201905061374e600083018761256d565b61375b602083018661256d565b6137686040830185612801565b818103606083015261377a8184613700565b905095945050505050565b6000815190506137948161238e565b92915050565b6000602082840312156137b0576137af612358565b5b60006137be84828501613785565b91505092915050565b60006137d2826124d8565b91507fffffffffffffffffffffffffffffffffffffffffffffffffffffffffffffffff82141561380557613804612bc2565b5b600182019050919050565b600061381b826124d8565b9150613826836124d8565b92508261383657613835613094565b5b828206905092915050565b7f4e487b7100000000000000000000000000000000000000000000000000000000600052603260045260246000fd5b7f3c696d61676520687265663d2200000000000000000000000000000000000000815250565b7f22206f6e6572726f723d22746869732e7374796c652e646973706c61793d0000815250565b7f276e6f6e65270000000000000000000000000000000000000000000000000000815250565b7f22206865696768743d2200000000000000000000000000000000000000000000815250565b7f222f3e0000000000000000000000000000000000000000000000000000000000815250565b7f3c726563742077696474683d2200000000000000000000000000000000000000815250565b7f222066696c6c3d227768697465222066696c6c2d6f7061636974793d22000000815250565b7f25222f3e00000000000000000000000000000000000000000000000000000000815250565b60006139ab82613870565b600d820191506139bb8289613531565b91506139c682613896565b601e820191506139d5826138bc565b6006820191506139e4826138e2565b600a820191506139f48288612d59565b91506139ff8261332a565b600982019150613a0f8287612d59565b9150613a1a82613908565b600382019150613a298261392e565b600d82019150613a398286612d59565b9150613a44826138e2565b600a82019150613a548285612d59565b9150613a5f82613954565b601d82019150613a6f8284612d59565b9150613a7a8261397a565b600482019150819050979650505050505050565b600067ffffffffffffffff821115613aa957613aa8612660565b5b602082029050602081019050919050565b600080fd5b600081519050613ace816124e2565b92915050565b6000613ae7613ae284613a8e565b6126c0565b90508083825260208201905060208402830185811115613b0a57613b09613aba565b5b835b81811015613b335780613b1f8882613abf565b845260208401935050602081019050613b0c565b5050509392505050565b600082601f830112613b5257613b51612656565b5b8151613b62848260208601613ad4565b91505092915050565b600060208284031215613b8157613b80612358565b5b600082015167ffffffffffffffff811115613b9f57613b9e61235d565b5b613bab84828501613b3d565b91505092915050565b600061ffff82169050919050565b613bcb81613bb4565b82525050565b6000604082019050613be66000830185613bc2565b613bf36020830184613bc2565b9392505050565b600080fd5b600060ff82169050919050565b613c1581613bff565b8114613c2057600080fd5b50565b600081519050613c3281613c0c565b92915050565b600060608284031215613c4e57613c4d613bfa565b5b613c5860606126c0565b90506000613c6884828501613c23565b6000830152506020613c7c84828501613c23565b6020830152506040613c9084828501613c23565b60408301525092915050565b600060608284031215613cb257613cb1612358565b5b6000613cc084828501613c38565b91505092915050565b6000613cd58285612d59565b9150613ce18284612d59565b91508190509392505050565b6000613cf882613bb4565b915061ffff821415613d0d57613d0c612bc2565b5b600182019050919050565b7f4552433732313a206d696e7420746f20746865207a65726f2061646472657373600082015250565b6000613d4e602083612428565b9150613d5982613d18565b602082019050919050565b60006020820190508181036000830152613d7d81613d41565b9050919050565b7f4552433732313a20746f6b656e20616c7265616479206d696e74656400000000600082015250565b6000613dba601c83612428565b9150613dc582613d84565b602082019050919050565b60006020820190508181036000830152613de981613dad565b9050919050565b7f3c7265637420783d220000000000000000000000000000000000000000000000600082015250565b6000613e26600983612d02565b9150613e3182613df0565b600982019050919050565b7f2220793d22000000000000000000000000000000000000000000000000000000600082015250565b6000613e72600583612d02565b9150613e7d82613e3c565b600582019050919050565b7f222077696474683d220000000000000000000000000000000000000000000000600082015250565b6000613ebe600983612d02565b9150613ec982613e88565b600982019050919050565b7f22206865696768743d2200000000000000000000000000000000000000000000600082015250565b6000613f0a600a83612d02565b9150613f1582613ed4565b600a82019050919050565b7f22207374796c653d2266696c6c3a726762280000000000000000000000000000600082015250565b6000613f56601283612d02565b9150613f6182613f20565b601282019050919050565b7f2c00000000000000000000000000000000000000000000000000000000000000600082015250565b6000613fa2600183612d02565b9150613fad82613f6c565b600182019050919050565b7f2900000000000000000000000000000000000000000000000000000000000000600082015250565b6000613fee600183612d02565b9150613ff982613fb8565b600182019050919050565b7f222f3e0000000000000000000000000000000000000000000000000000000000600082015250565b600061403a600383612d02565b915061404582614004565b600382019050919050565b600061405b82613e19565b9150614067828a612d59565b915061407282613e65565b915061407e8289612d59565b915061408982613eb1565b91506140958288612d59565b91506140a082613efd565b91506140ac8287612d59565b91506140b782613f49565b91506140c38286612d59565b91506140ce82613f95565b91506140da8285612d59565b91506140e582613f95565b91506140f18284612d59565b91506140fc82613fe1565b91506141078261402d565b91508190509897505050505050505056fe4142434445464748494a4b4c4d4e4f505152535455565758595a6162636465666768696a6b6c6d6e6f707172737475767778797a303132333435363738392b2fa264697066735822122068799014871e22641e8a6b104709a555b56bf04cee2435803b82235fc6dfed2564736f6c634300080c0033",
  "linkReferences": {},
  "deployedLinkReferences": {}
}