{
    "_format": "hh-sol-artifact-1",
    "contractName": "MergeCanvas",
    "sourceName": "contracts/MergeCanvas.sol",
    "abi": [
        {
            "inputs": [
                {
                    "internalType": "uint16",
                    "name": "_canvas_dimension",
                    "type": "uint16"
                }
            ],
            "stateMutability": "nonpayable",
            "type": "constructor"
        },
        {
            "inputs": [
                {
                    "internalType": "address",
                    "name": "sender",
                    "type": "address"
                }
            ],
            "name": "MergeCanvas_AddressAtMaxPixelCapacity",
            "type": "error"
        },
        {
            "inputs": [
                {
                    "internalType": "string",
                    "name": "reason",
                    "type": "string"
                }
            ],
            "name": "MergeCanvas_AlreadyMerged",
            "type": "error"
        },
        {
            "inputs": [],
            "name": "MergeCanvas_FailedBidRefund",
            "type": "error"
        },
        {
            "inputs": [
                {
                    "internalType": "uint256",
                    "name": "bid",
                    "type": "uint256"
                },
                {
                    "internalType": "uint256",
                    "name": "curr_price",
                    "type": "uint256"
                }
            ],
            "name": "MergeCanvas_InsufficientBid",
            "type": "error"
        },
        {
            "inputs": [
                {
                    "internalType": "address",
                    "name": "sender",
                    "type": "address"
                }
            ],
            "name": "MergeCanvas_NotContributor",
            "type": "error"
        },
        {
            "inputs": [
                {
                    "internalType": "address",
                    "name": "sender",
                    "type": "address"
                }
            ],
            "name": "MergeCanvas_NotOwner",
            "type": "error"
        },
        {
            "inputs": [
                {
                    "internalType": "uint16",
                    "name": "x",
                    "type": "uint16"
                },
                {
                    "internalType": "uint16",
                    "name": "max_value",
                    "type": "uint16"
                }
            ],
            "name": "MergeCanvas_XCoordinateOutOfBounds",
            "type": "error"
        },
        {
            "inputs": [
                {
                    "internalType": "uint16",
                    "name": "y",
                    "type": "uint16"
                },
                {
                    "internalType": "uint16",
                    "name": "max_value",
                    "type": "uint16"
                }
            ],
            "name": "MergeCanvas_YCoordinateOutOfBounds",
            "type": "error"
        },
        {
            "anonymous": false,
            "inputs": [
                {
                    "indexed": false,
                    "internalType": "uint16",
                    "name": "x",
                    "type": "uint16"
                },
                {
                    "indexed": false,
                    "internalType": "uint16",
                    "name": "y",
                    "type": "uint16"
                },
                {
                    "indexed": false,
                    "internalType": "address",
                    "name": "old_owner",
                    "type": "address"
                },
                {
                    "indexed": false,
                    "internalType": "address",
                    "name": "new_owner",
                    "type": "address"
                },
                {
                    "components": [
                        {
                            "internalType": "uint8",
                            "name": "R",
                            "type": "uint8"
                        },
                        {
                            "internalType": "uint8",
                            "name": "G",
                            "type": "uint8"
                        },
                        {
                            "internalType": "uint8",
                            "name": "B",
                            "type": "uint8"
                        }
                    ],
                    "indexed": false,
                    "internalType": "struct MergeCanvas.RGB",
                    "name": "old_color",
                    "type": "tuple"
                },
                {
                    "components": [
                        {
                            "internalType": "uint8",
                            "name": "R",
                            "type": "uint8"
                        },
                        {
                            "internalType": "uint8",
                            "name": "G",
                            "type": "uint8"
                        },
                        {
                            "internalType": "uint8",
                            "name": "B",
                            "type": "uint8"
                        }
                    ],
                    "indexed": false,
                    "internalType": "struct MergeCanvas.RGB",
                    "name": "new_color",
                    "type": "tuple"
                },
                {
                    "indexed": false,
                    "internalType": "uint256",
                    "name": "old_price",
                    "type": "uint256"
                },
                {
                    "indexed": false,
                    "internalType": "uint256",
                    "name": "new_price",
                    "type": "uint256"
                }
            ],
            "name": "PixelColorChanged",
            "type": "event"
        },
        {
            "inputs": [],
            "name": "CANVAS_DIMENSION",
            "outputs": [
                {
                    "internalType": "uint16",
                    "name": "",
                    "type": "uint16"
                }
            ],
            "stateMutability": "view",
            "type": "function"
        },
        {
            "inputs": [
                {
                    "internalType": "address",
                    "name": "_address",
                    "type": "address"
                }
            ],
            "name": "Contributed",
            "outputs": [
                {
                    "internalType": "bool",
                    "name": "",
                    "type": "bool"
                }
            ],
            "stateMutability": "view",
            "type": "function"
        },
        {
            "inputs": [
                {
                    "internalType": "uint16",
                    "name": "_x",
                    "type": "uint16"
                },
                {
                    "internalType": "uint16",
                    "name": "_y",
                    "type": "uint16"
                },
                {
                    "components": [
                        {
                            "internalType": "uint8",
                            "name": "R",
                            "type": "uint8"
                        },
                        {
                            "internalType": "uint8",
                            "name": "G",
                            "type": "uint8"
                        },
                        {
                            "internalType": "uint8",
                            "name": "B",
                            "type": "uint8"
                        }
                    ],
                    "internalType": "struct MergeCanvas.RGB",
                    "name": "_new_color",
                    "type": "tuple"
                }
            ],
            "name": "changePixelColor",
            "outputs": [],
            "stateMutability": "payable",
            "type": "function"
        },
        {
            "inputs": [
                {
                    "internalType": "address",
                    "name": "_address",
                    "type": "address"
                }
            ],
            "name": "getAddressPixels",
            "outputs": [
                {
                    "internalType": "uint256[]",
                    "name": "address_pixels",
                    "type": "uint256[]"
                }
            ],
            "stateMutability": "view",
            "type": "function"
        },
        {
            "inputs": [
                {
                    "internalType": "uint16",
                    "name": "_x",
                    "type": "uint16"
                },
                {
                    "internalType": "uint16",
                    "name": "_y",
                    "type": "uint16"
                }
            ],
            "name": "getPixelColor",
            "outputs": [
                {
                    "components": [
                        {
                            "internalType": "uint8",
                            "name": "R",
                            "type": "uint8"
                        },
                        {
                            "internalType": "uint8",
                            "name": "G",
                            "type": "uint8"
                        },
                        {
                            "internalType": "uint8",
                            "name": "B",
                            "type": "uint8"
                        }
                    ],
                    "internalType": "struct MergeCanvas.RGB",
                    "name": "color",
                    "type": "tuple"
                }
            ],
            "stateMutability": "view",
            "type": "function"
        },
        {
            "inputs": [
                {
                    "internalType": "uint16",
                    "name": "_x",
                    "type": "uint16"
                },
                {
                    "internalType": "uint16",
                    "name": "_y",
                    "type": "uint16"
                }
            ],
            "name": "getPixelOwner",
            "outputs": [
                {
                    "internalType": "address",
                    "name": "owner",
                    "type": "address"
                }
            ],
            "stateMutability": "view",
            "type": "function"
        },
        {
            "inputs": [
                {
                    "internalType": "uint16",
                    "name": "_x",
                    "type": "uint16"
                },
                {
                    "internalType": "uint16",
                    "name": "_y",
                    "type": "uint16"
                }
            ],
            "name": "getPixelPrice",
            "outputs": [
                {
                    "internalType": "uint256",
                    "name": "pixel_price",
                    "type": "uint256"
                }
            ],
            "stateMutability": "view",
            "type": "function"
        },
        {
            "inputs": [],
            "name": "mergeNow",
            "outputs": [
                {
                    "internalType": "uint256",
                    "name": "",
                    "type": "uint256"
                }
            ],
            "stateMutability": "nonpayable",
            "type": "function"
        },
        {
            "inputs": [],
            "name": "mergeStatus",
            "outputs": [
                {
                    "internalType": "bool",
                    "name": "",
                    "type": "bool"
                }
            ],
            "stateMutability": "view",
            "type": "function"
        },
        {
            "inputs": [
                {
                    "internalType": "address",
                    "name": "_address",
                    "type": "address"
                }
            ],
            "name": "numberOfPixels",
            "outputs": [
                {
                    "internalType": "uint256",
                    "name": "",
                    "type": "uint256"
                }
            ],
            "stateMutability": "view",
            "type": "function"
        }
    ],
    "bytecode": "0x60e060405260008060006101000a81548160ff0219169083151502179055503480156200002b57600080fd5b50604051620018d2380380620018d28339818101604052810190620000519190620000e8565b3373ffffffffffffffffffffffffffffffffffffffff1660a08173ffffffffffffffffffffffffffffffffffffffff16815250508061ffff1660808161ffff16815250504260c08181525050506200011a565b600080fd5b600061ffff82169050919050565b620000c281620000a9565b8114620000ce57600080fd5b50565b600081519050620000e281620000b7565b92915050565b600060208284031215620001015762000100620000a4565b5b60006200011184828501620000d1565b91505092915050565b60805160a05160c05161176f620001636000396000505060006108610152600081816109ba01528181610a9c01528181610ad701528181610b370152610b72015261176f6000f3fe6080604052600436106100915760003560e01c806394a45b531161005957806394a45b5314610194578063d0f5f4cd146101bf578063f186bb79146101fc578063f73d867914610239578063f94b26d71461026457610091565b806306c47b2d1461009657806334f53a46146100c157806335a268d4146100fe5780635721ef141461013b5780638d63cfa714610157575b600080fd5b3480156100a257600080fd5b506100ab6102a1565b6040516100b89190610e8e565b60405180910390f35b3480156100cd57600080fd5b506100e860048036038101906100e39190610f0c565b6102b7565b6040516100f59190611001565b60405180910390f35b34801561010a57600080fd5b5061012560048036038101906101209190610f0c565b610307565b6040516101329190610e8e565b60405180910390f35b61015560048036038101906101509190611081565b61039d565b005b34801561016357600080fd5b5061017e600480360381019061017991906110d4565b610811565b60405161018b9190611123565b60405180910390f35b3480156101a057600080fd5b506101a961085d565b6040516101b6919061114d565b60405180910390f35b3480156101cb57600080fd5b506101e660048036038101906101e191906110d4565b610910565b6040516101f391906111c6565b60405180910390f35b34801561020857600080fd5b50610223600480360381019061021e91906110d4565b6109a4565b604051610230919061114d565b60405180910390f35b34801561024557600080fd5b5061024e6109b8565b60405161025b91906111f0565b60405180910390f35b34801561027057600080fd5b5061028b60048036038101906102869190610f0c565b6109dc565b604051610298919061114d565b60405180910390f35b60008060009054906101000a900460ff16905090565b6060610300600460008473ffffffffffffffffffffffffffffffffffffffff1673ffffffffffffffffffffffffffffffffffffffff168152602001908152602001600020610a32565b9050919050565b600080610351600460008573ffffffffffffffffffffffffffffffffffffffff1673ffffffffffffffffffffffffffffffffffffffff168152602001908152602001600020610a53565b141561039457816040517f7096adea00000000000000000000000000000000000000000000000000000000815260040161038b9190611123565b60405180910390fd5b60019050919050565b60008054906101000a900460ff16156103eb576040517f172f17f90000000000000000000000000000000000000000000000000000000081526004016103e290611268565b60405180910390fd5b6000610434600460003373ffffffffffffffffffffffffffffffffffffffff1673ffffffffffffffffffffffffffffffffffffffff168152602001908152602001600020610a53565b90506101f4811061047c57336040517fa07e7c510000000000000000000000000000000000000000000000000000000081526004016104739190611123565b60405180910390fd5b8383600061048a8383610a68565b905060008111801561049c5750803411155b156104e05734816040517ff8cbdefc0000000000000000000000000000000000000000000000000000000081526004016104d7929190611288565b60405180910390fd5b60006104ec8888610a94565b905060006001600083815260200190815260200160002060009054906101000a900473ffffffffffffffffffffffffffffffffffffffff169050336001600084815260200190815260200160002060006101000a81548173ffffffffffffffffffffffffffffffffffffffff021916908373ffffffffffffffffffffffffffffffffffffffff1602179055506000600260008481526020019081526020016000206040518060600160405290816000820160009054906101000a900460ff1660ff1660ff1681526020016000820160019054906101000a900460ff1660ff1660ff1681526020016000820160029054906101000a900460ff1660ff1660ff16815250509050876002600085815260200190815260200160002081816106119190611477565b90505060006003600085815260200190815260200160002054905060008111156106da5760008373ffffffffffffffffffffffffffffffffffffffff168260405161065b906114b6565b60006040518083038185875af1925050503d8060008114610698576040519150601f19603f3d011682016040523d82523d6000602084013e61069d565b606091505b50509050806106d8576040517fc507a96f00000000000000000000000000000000000000000000000000000000815260040160405180910390fd5b505b34600360008681526020019081526020016000208190555060008a61ffff1660108d61ffff1663ffffffff16901b610712919061150a565b63ffffffff16905061076b81600460003373ffffffffffffffffffffffffffffffffffffffff1673ffffffffffffffffffffffffffffffffffffffff168152602001908152602001600020610c0190919063ffffffff16565b506107bd81600460003373ffffffffffffffffffffffffffffffffffffffff1673ffffffffffffffffffffffffffffffffffffffff168152602001908152602001600020610c1b90919063ffffffff16565b507f123d5bd187646f1ccf496448c16212e571f71fc8e99656580bb428e234e554878c8c8633878f88346040516107fb9897969594939291906115ca565b60405180910390a1505050505050505050505050565b60008061081e8484610a94565b90506001600082815260200190815260200160002060009054906101000a900473ffffffffffffffffffffffffffffffffffffffff1691505092915050565b60007f000000000000000000000000000000000000000000000000000000000000000073ffffffffffffffffffffffffffffffffffffffff163373ffffffffffffffffffffffffffffffffffffffff16146108ef57336040517f70e297ee0000000000000000000000000000000000000000000000000000000081526004016108e69190611123565b60405180910390fd5b60016000806101000a81548160ff0219169083151502179055506001905090565b610918610e49565b60006109248484610a94565b9050600260008281526020019081526020016000206040518060600160405290816000820160009054906101000a900460ff1660ff1660ff1681526020016000820160019054906101000a900460ff1660ff1660ff1681526020016000820160029054906101000a900460ff1660ff1660ff168152505091505092915050565b60006109b08383610a68565b905092915050565b7f000000000000000000000000000000000000000000000000000000000000000081565b600080610a26600460008573ffffffffffffffffffffffffffffffffffffffff1673ffffffffffffffffffffffffffffffffffffffff168152602001908152602001600020610a32565b90508051915050919050565b60606000610a4283600001610c35565b905060608190508092505050919050565b6000610a6182600001610c91565b9050919050565b600080610a758484610a94565b9050600360008281526020019081526020016000205491505092915050565b6000828260017f0000000000000000000000000000000000000000000000000000000000000000610ac5919061164a565b61ffff168261ffff161115610b3357817f00000000000000000000000000000000000000000000000000000000000000006040517f1ec4d396000000000000000000000000000000000000000000000000000000008152600401610b2a92919061167e565b60405180910390fd5b60017f0000000000000000000000000000000000000000000000000000000000000000610b60919061164a565b61ffff168161ffff161115610bce57807f00000000000000000000000000000000000000000000000000000000000000006040517f53df396b000000000000000000000000000000000000000000000000000000008152600401610bc592919061167e565b60405180910390fd5b8484604051602001610be192919061167e565b604051602081830303815290604052805190602001209250505092915050565b6000610c13836000018360001b610ca2565b905092915050565b6000610c2d836000018360001b610db6565b905092915050565b606081600001805480602002602001604051908101604052809291908181526020018280548015610c8557602002820191906000526020600020905b815481526020019060010190808311610c71575b50505050509050919050565b600081600001805490509050919050565b60008083600101600084815260200190815260200160002054905060008114610daa576000600182610cd491906116a7565b9050600060018660000180549050610cec91906116a7565b9050818114610d5b576000866000018281548110610d0d57610d0c6116db565b5b9060005260206000200154905080876000018481548110610d3157610d306116db565b5b90600052602060002001819055508387600101600083815260200190815260200160002081905550505b85600001805480610d6f57610d6e61170a565b5b600190038181906000526020600020016000905590558560010160008681526020019081526020016000206000905560019350505050610db0565b60009150505b92915050565b6000610dc28383610e26565b610e1b578260000182908060018154018082558091505060019003906000526020600020016000909190919091505582600001805490508360010160008481526020019081526020016000208190555060019050610e20565b600090505b92915050565b600080836001016000848152602001908152602001600020541415905092915050565b6040518060600160405280600060ff168152602001600060ff168152602001600060ff1681525090565b60008115159050919050565b610e8881610e73565b82525050565b6000602082019050610ea36000830184610e7f565b92915050565b600080fd5b600073ffffffffffffffffffffffffffffffffffffffff82169050919050565b6000610ed982610eae565b9050919050565b610ee981610ece565b8114610ef457600080fd5b50565b600081359050610f0681610ee0565b92915050565b600060208284031215610f2257610f21610ea9565b5b6000610f3084828501610ef7565b91505092915050565b600081519050919050565b600082825260208201905092915050565b6000819050602082019050919050565b6000819050919050565b610f7881610f65565b82525050565b6000610f8a8383610f6f565b60208301905092915050565b6000602082019050919050565b6000610fae82610f39565b610fb88185610f44565b9350610fc383610f55565b8060005b83811015610ff4578151610fdb8882610f7e565b9750610fe683610f96565b925050600181019050610fc7565b5085935050505092915050565b6000602082019050818103600083015261101b8184610fa3565b905092915050565b600061ffff82169050919050565b61103a81611023565b811461104557600080fd5b50565b60008135905061105781611031565b92915050565b600080fd5b6000606082840312156110785761107761105d565b5b81905092915050565b600080600060a0848603121561109a57611099610ea9565b5b60006110a886828701611048565b93505060206110b986828701611048565b92505060406110ca86828701611062565b9150509250925092565b600080604083850312156110eb576110ea610ea9565b5b60006110f985828601611048565b925050602061110a85828601611048565b9150509250929050565b61111d81610ece565b82525050565b60006020820190506111386000830184611114565b92915050565b61114781610f65565b82525050565b6000602082019050611162600083018461113e565b92915050565b600060ff82169050919050565b61117e81611168565b82525050565b60608201600082015161119a6000850182611175565b5060208201516111ad6020850182611175565b5060408201516111c06040850182611175565b50505050565b60006060820190506111db6000830184611184565b92915050565b6111ea81611023565b82525050565b600060208201905061120560008301846111e1565b92915050565b600082825260208201905092915050565b7f4d6572676520686173206f636375726564000000000000000000000000000000600082015250565b600061125260118361120b565b915061125d8261121c565b602082019050919050565b6000602082019050818103600083015261128181611245565b9050919050565b600060408201905061129d600083018561113e565b6112aa602083018461113e565b9392505050565b6112ba81611168565b81146112c557600080fd5b50565b600081356112d5816112b1565b80915050919050565b60008160001b9050919050565b600060ff6112f8846112de565b9350801983169250808416831791505092915050565b6000819050919050565b600061133361132e61132984611168565b61130e565b611168565b9050919050565b6000819050919050565b61134d82611318565b6113606113598261133a565b83546112eb565b8255505050565b60008160081b9050919050565b600061ff0061138284611367565b9350801983169250808416831791505092915050565b6113a182611318565b6113b46113ad8261133a565b8354611374565b8255505050565b60008160101b9050919050565b600062ff00006113d7846113bb565b9350801983169250808416831791505092915050565b6113f682611318565b6114096114028261133a565b83546113c8565b8255505050565b600081016000830180611422816112c8565b905061142e8184611344565b505050600081016020830180611443816112c8565b905061144f8184611398565b505050600081016040830180611464816112c8565b905061147081846113ed565b5050505050565b6114818282611410565b5050565b600081905092915050565b50565b60006114a0600083611485565b91506114ab82611490565b600082019050919050565b60006114c182611493565b9150819050919050565b600063ffffffff82169050919050565b7f4e487b7100000000000000000000000000000000000000000000000000000000600052601160045260246000fd5b6000611515826114cb565b9150611520836114cb565b92508263ffffffff03821115611539576115386114db565b5b828201905092915050565b600081359050611553816112b1565b92915050565b60006115686020840184611544565b905092915050565b606082016115816000830183611559565b61158e6000850182611175565b5061159c6020830183611559565b6115a96020850182611175565b506115b76040830183611559565b6115c46040850182611175565b50505050565b6000610180820190506115e0600083018b6111e1565b6115ed602083018a6111e1565b6115fa6040830189611114565b6116076060830188611114565b6116146080830187611184565b61162160e0830186611570565b61162f61014083018561113e565b61163d61016083018461113e565b9998505050505050505050565b600061165582611023565b915061166083611023565b925082821015611673576116726114db565b5b828203905092915050565b600060408201905061169360008301856111e1565b6116a060208301846111e1565b9392505050565b60006116b282610f65565b91506116bd83610f65565b9250828210156116d0576116cf6114db565b5b828203905092915050565b7f4e487b7100000000000000000000000000000000000000000000000000000000600052603260045260246000fd5b7f4e487b7100000000000000000000000000000000000000000000000000000000600052603160045260246000fdfea2646970667358221220de5621ac07671a8e8c61620ba7bf0376b9e54c4fb30a2eed2c1340eea5c2023464736f6c634300080c0033",
    "linkReferences": {},
    "deployedLinkReferences": {}
}